:020000040000FA
:040000006DEF00F0B0
:060008000F8201ED04F07F
:100018000F80D8CF06F0E8CF07F0E0CF08F0F0A2C5
:1000280018EF00F01AEF00F065EF00F0F0A81FEFEE
:1000380000F021EF00F065EF00F0F092010E0C6E79
:10004800030E096E000E0A6E0C50FF0A836E020E34
:10005800056E450E046EAA0EE82EFED7042EFCD7B8
:10006800052EFAD7D8900C360A2A060E0A643FEFF6
:1000780000F041EF00F028EF00F0000E0B6E0C507E
:10008800FF0A836E020E056E450E046EAA0EE82E58
:10009800FED7042EFCD7052EFAD7D8900C320B2A9F
:1000A800060E0B645AEF00F05CEF00F043EF00F02F
:1000B80009060950D8A463EF00F065EF00F026EFB9
:1000C80000F008C0E0FF07C0E8FF06C0D8FF0F90A7
:0600D800100062EF04F0CD
:1008000000000600F0A007EF04F009EF04F036EF57
:1008100004F0F0A60EEF04F010EF04F036EF04F051
:10082000F090030E036E550E836E030E026E8A0E59
:10083000016E560EE82EFED7012EFCD7022EFAD7F7
:10084000AA0E836E030E026E8A0E016E560EE82EFD
:10085000FED7012EFCD7022EFAD703060350D8A4E8
:1008600034EF04F036EF04F013EF04F00F921100B0
:10087000000E956E500ED36ED08EF092F090F09EDA
:10088000F08CF088F086F28CF28E000E836E030EF0
:100890000E6E8A0E0D6E560EE82EFED70D2EFCD76C
:1008A0000E2EFAD78368030E0E6E8A0E0D6E560E4C
:1008B000E82EFED70D2EFCD70E2EFAD745EF04F00A
:0E08C0006DEF00F00F900F92000138EF04F082
:020000040020DA
:08000000FFFFFFFFFFFFFFFF00
:020000040030CA
:0E00000004081F1EFF8181FF0FC00FE00F409C
:00000001FF
