:0400000076EF3EF069
:107CDC003F065B4F666D7C077F67777C585E7971DA
:107CEC00DC0EF66E7C0EF76E000EF86E00EE22F0D7
:107CFC0010EE10F00900F5CFEEFFE550E150FAE17F
:107D0C00000115EF3FF0000E066E02AE07D0016CBD
:107D1C00021ED8B0022A010E066E00D004AE05D0A9
:107D2C00036C041ED8B0042A00D003500410D8B43D
:107D3C001DD0010E056E05D0D89003360436052AE9
:107D4C0000D004BE02D0F8D700D00350015C045020
:107D5C000258D8A005D00350015E0450025A00D03E
:107D6C00D89004320332052EF0D700D00650D8B488
:107D7C0005D0016C021ED8B0022A00D001C001F05F
:107D8C0002C002F000D01200000E066E04AE07D046
:107D9C00036C041ED8B0042A010E066E00D002AE8D
:107DAC0007D0016C021ED8B0022A010E061A00D0B0
:107DBC00000E086E000E076E03500410D8B421D0CC
:107DCC00010E056E05D0D89003360436052A00D076
:107DDC0004BE02D0F8D700D0D8900736083603502E
:107DEC00015C04500258D8A006D00350015E045028
:107DFC00025A078000D0D89004320332052EECD7FB
:107E0C0000D00650D8B405D0076C081ED8B0082A8C
:107E1C0000D007C001F008C002F000D01200000E24
:107E2C001F6E000E1E6E20EE22F010EE0AF00F0EEA
:107E3C00DBCFE3FFE806FCE20F0EC16E000E956E81
:107E4C00929A929496909694849484908094809A2A
:107E5C00F19E00D081B013D01FBE06D00F0E1E5C59
:107E6C00270E1F58D8B00BD01E4A1F2AC30E096EFE
:107E7C00CD0EE82EFED7092EFCD700F000D081A243
:107E8C001FBE11D01F5003E11E04D8A00CD01E063B
:107E9C00D8A01F06C30E096ECD0EE82EFED7092EF4
:107EAC00FCD700F000D01EC020F01FC021F020C075
:107EBC0001F021C002F0030E046EE80E036ECAEC52
:107ECC003EF001501A6E20C001F021C002F0030EEA
:107EDC00046EE80E036E89EC3EF001C020F002C087
:107EEC0021F020C001F021C002F0000E046E640EDF
:107EFC00036ECAEC3EF001501B6E20C001F021C095
:107F0C0002F0000E046E640E036E89EC3EF001C0AC
:107F1C0020F002C021F020C001F021C002F0000EC0
:107F2C00046E0A0E036ECAEC3EF001501C6E20C0AB
:107F3C0001F021C002F0000E046E0A0E036E89ECF3
:107F4C003EF001501D6E1A50010D0A0EF324D96E2D
:107F5C00000EF420DA6EDF50836E8494849080944B
:107F6C00808A140E096E7A0EE82EFED7092EFCD7E5
:107F7C001B50010D0A0EF324D96E000EF420DA6E9C
:107F8C00DF50836E849484908084809A140E096EE2
:107F9C007A0EE82EFED7092EFCD71C50010D0A0EC6
:107FAC00F324D96E000EF420DA6EDF50836E8494C5
:107FBC0084808094809A140E096E7A0EE82EFED777
:107FCC00092EFCD71D50010D0A0EF324D96E000E9C
:107FDC00F420DA6EDF50836E848484908094809ACF
:107FEC00140E096E7A0EE82EFED7092EFCD732D766
:047FFC0000EF00F0A2
:020000040020DA
:08000000FFFFFFFFFFFFFFFF00
:020000040030CA
:0E000000040C1F1EFF8181FF0FC00FE00F4098
:00000001FF
