:020000040000FA
:0400000061EF04F0B8
:100800000000000E126E000E116E20EE13F010EEBE
:1008100001F00F0EDBCFE3FFE806FCE20F0EC16E26
:10082000000E956E92909294969096948484849003
:100830008094809AF19E1150010FD96EDA6ADF50D0
:10084000836E81B026EF04F028EF04F03FEF04F050
:1008500012BE36EF04F0125007E10F0E115CD8B053
:1008600034EF04F036EF04F038EF04F0114A122AA6
:1008700081A03DEF04F03FEF04F038EF04F081B2C7
:1008800044EF04F046EF04F01BEF04F012BE51EF0A
:1008900004F0125008E11104D8A051EF04F053EF16
:1008A00004F056EF04F01106D8A0120681A25BEF07
:1008B00004F05DEF04F056EF04F01BEF04F000EFDE
:1008C00000F0E80EF66E080EF76E000EF86E00EE01
:1008D00013F010EE10F00900F5CFEEFFE550E150F7
:1008E000FAE1000101EF04F03F065B4F666D7C0703
:0808F0007F67777C585E797187
:020000040020DA
:08000000FFFFFFFFFFFFFFFF00
:020000040030CA
:0E000000040C1F1EFF8181FF0FC00FE00F4098
:00000001FF
